:100000000C94CE000C94F6000C94F6000C94F600C0
:100010000C94F6000C94F6000C94F6000C94F60088
:100020000C94F6000C94F6000C94F6000C94F60078
:100030000C94F6000C94F6000C94F6000C94F60068
:100040000C94670E0C94F6000C94F6000C94F600D9
:100050000C94F6000C94F6000C94F6000C94F60048
:100060000C945F0C0C94F60062793A204B6576692B
:100070006E204265726E617300536D61727420442C
:10008000656879647261746F7200250020004320F6
:10009000483A002000543A0020446568796472614F
:1000A000746F72204F4646200043202020200020FD
:1000B00020202B2F2D200054656D702048797374FB
:1000C00065726573697320006872730020004320B5
:1000D0004554413A00543A00250020002F002000EA
:1000E00043202000200025002000202000486F6CC5
:1000F00064204865617465723A0025002000202064
:10010000004320683A0020002F0020002500200036
:1001100068722052483A0020006574613A00005E1F
:10012000BCE2613FDD83C29C7E20A3FD1F41009D98
:1001300023BE46DB65F88C11AF32CA57E974000064
:10014000000023002600290004040404040404041D
:100150000202020202020303030303030102040872
:100160001020408001020408102001020408102021
:1001700000000000240027002A00000000002500E5
:1001800028002B0000000008000201000003040703
:100190000000000000000000FB17EB1711241FBE39
:1001A000CFEFD8E0DEBFCDBF24E0A6EBB2E001C0C8
:1001B0001D92A335B207E1F712E0A0E0B1E0E6E559
:1001C000FBE302C005900D92A63BB107D9F710E002
:1001D000CDECD0E004C02197FE010E94841ACC3CF3
:1001E000D107C9F70E94B10E0C949E1D0C9400001B
:1001F000CF92DF92EF92FF920F931F93CF93DF93F3
:100200006C017A018B01C0E0D0E0CE15DF0581F0F2
:10021000D8016D918D01D601ED91FC910190F08195
:10022000E02DC6010995892B11F02196EECF7E01B4
:10023000C701DF91CF911F910F91FF90EF90DF9059
:10024000CF90089521E001C0220F6A95EAF7DC0102
:100250001C962C931C971A965C934E931997ED91CC
:10026000FC910484F585E02D60E00994DC01ED91BA
:10027000FC910684F785E02D41E0099581E090E04E
:10028000089508950895089580E090E008950E94EB
:10029000891D0F931F93CF93DF93062F0F7042306A
:1002A00019F440E0602F0EC0142FEC0170E084E0E0
:1002B000759567958A95E1F7CE010E942F0C412F25
:1002C000602FCE01DF91CF911F910F910C942F0CD5
:1002D000FC0184858823A9F021853285211531050B
:1002E00019F4611106C007C02130310521F46111F4
:1002F00002C0858701C015866585CF010E960C94D6
:10030000190A0895EF92FF920F931F93CF93DF93F3
:10031000EC01198218821B821A821D821C826115CF
:100320007105B9F17B01FB0101900020E9F73197DC
:100330008F01061B170BB8016F5F7F4F80E090E0C5
:100340000E94C31C009759F0998388831B830A83FA
:100350002C813D81232B81F4FC0110820DC088810A
:100360009981009711F00E943A1C198218821D820F
:100370001C821B821A820DC01D830C83B7018881E9
:100380009981DF91CF911F910F91FF90EF900C9485
:10039000971DDF91CF911F910F91FF90EF900895DE
:1003A000DC01ED91FC910684F785E02D40E0099495
:1003B0000F931F93CF93DF93EC01423018F08C81A1
:1003C00088608C834F836887222329F0413019F499
:1003D0008C8184608C8364E670E080E090E00E9411
:1003E000210E6C8164FD31C0E881F9810684F785B6
:1003F000E02D42E063E0CE0109958BE496E401979D
:10040000F1F7E881F9810684F785E02D42E063E0A9
:10041000CE01099503E512E0C8010197F1F7E881E3
:10042000F9810684F785E02D42E063E0CE0109956D
:10043000C8010197F1F7E881F9810684F785E02D7D
:1004400042E062E0CE01099517C06062CE010E94D1
:10045000D0018BE496E40197F1F76C816062CE01E4
:100460000E94D00103E512E0C8010197F1F76C8109
:100470006062CE010E94D001C8010197F1F76C8142
:100480006062CE010E94D0018BEE90E00197F1F7FF
:1004900084E08D836CE0CE010E94D00161E0CE014A
:1004A0000E94D0018BE39FE10197F1F782E08E83F8
:1004B00066E0CE010E94D001E881F9810484F585CF
:1004C000E02D6FEFCE01DF91CF911F910F91099435
:1004D000EF92FF920F931F93CF93DF93EC01062FC0
:1004E000F42EE22E8B85888B1092DE031092DD03B2
:1004F00010922403109246031092220311E01093ED
:1005000021031092FC0261E082E10E94B60D61E0DD
:1005100083E10E94B60D8091B9008E7F8093B9006F
:100520008091B9008D7F8093B90088E48093B800F2
:1005300085E48093BC0082E29BE09093E00380938B
:10054000DF0383E29BE09093E2038093E1038889D9
:1005500010932303809345031092240310924603C3
:100560000E94BD0991E0811190E0998B811105C035
:1005700087E493E00E94340B8E878989882339F0C1
:100580001F861C8260E0CE010E960E94190A2E2D55
:100590004F2D602FCE01DF91CF911F910F91FF90D2
:1005A000EF900C94D801DC0180E0615098F02D911F
:1005B000982F9227E92FEF70F0E0E25EFE4F249132
:1005C00092959F70E92FF0E0E25DFE4FE491822F5B
:1005D0008E27EBCF0895FC0190810180F281E02D00
:1005E000F8948181892B81832281892F809528230A
:1005F0002283A7E0B0E01197F1F721818223818364
:10060000A3E2B0E01197F1F780817894EFECF0E08D
:100610003197F1F7982381E009F480E00895FC0117
:1006200090810180F281E02D892F809560FF12C0BA
:10063000F8942281822382838181892B8183A3E2A2
:10064000B0E01197F1F78281982B9283789487ED2F
:1006500090E011C0F8942281822382838181892BCA
:100660008183AFEFB0E01197F1F78281982B9283ED
:1006700078948FE090E00197F1F70895DF92EF9280
:10068000FF920F931F93CF93DF93EC01D62EE42EAE
:1006900008E010E0FF24F39461E08D2D8F2109F430
:1006A00060E0CE010E940F03FF0C01501109A1F779
:1006B000E11010C0F894E981FA81918188818095D8
:1006C00089238183E981FA819281888180958923B8
:1006D00082837894DF91CF911F910F91FF90EF90DB
:1006E000DF900895EF92FF920F931F93CF93DF93C4
:1006F0008C017B0140E065E50E943E03E70188E054
:10070000E80EF11C699140E0C8010E943E03CE153D
:10071000DF05C1F7DF91CF911F910F91FF90EF900F
:100720000895DC012C911196ED91FC911297F894AB
:100730008181922F90958923818378948DE743E07E
:1007400050E0815021F1DA011197F1F73081322325
:10075000C1F3F8948281892382838181822B8183F2
:100760007894ABE7B7E01197F1F7F894818198237B
:10077000918383E191E00197F1F78081282381E063
:1007800009F080E07894E3E6F6E03197F1F7089518
:10079000CF92DF92EF92FF92CF93DF93809121016E
:1007A00090912201A0912301B09124014091F8027F
:1007B0005091F9026091FA027091FB02841B950B33
:1007C000A60BB70B853F9140A105B10508F495C272
:1007D00080910001882341F084E00E948D0D892BD7
:1007E00009F08BC283E087C280912001823009F436
:1007F00036C130F4882359F0813009F497C07DC2A6
:10080000833009F4D5C1843009F45FC276C284E034
:100810000E948D0D892BA1F48091210190912201DC
:10082000A0912301B09124018093F8029093F902E2
:10083000A093FA02B093FB021092B70281E05BC270
:1008400085E00E948D0D892B69F5809121019091A1
:100850002201A0912301B09124018093F80290938A
:10086000F902A093FA02B093FB0220E030E040E8E6
:100870005FE3609118017091190180911A019091C4
:100880001B010E948B1A6B017C0120E030E040EAE2
:1008900052E40E94981B18169CF580E090E0A0EAB4
:1008A000B2E43BC086E00E948D0D892B09F025C281
:1008B0008091210190912201A0912301B091240106
:1008C0008093F8029093F902A093FA02B093FB028E
:1008D00020E030E040E85FE3609118017091190179
:1008E00080911A0190911B010E948A1A6B017C0170
:1008F00020E030E040EA51E40E94DF1887FD09C0A3
:10090000C0921801D0921901E0921A01F0921B01D5
:10091000F4C180E090E0A0EAB1E4809318019093E4
:100920001901A0931A01B0931B01E7C184E00E9452
:100930008D0D892BD9F48091210190912201A091F4
:100940002301B09124018093F8029093F902A093BF
:10095000FA02B093FB0260E089E00E94B60D60E00D
:1009600087E00E94B60D1092B60237C185E00E9462
:100970008D0D892BA9F58091210190912201A091E3
:100980002301B09124018093F8029093F902A0937F
:10099000FA02B093FB0220E030E040E85FE36091B0
:1009A0000C0170910D0180910E0190910F010E9438
:1009B0008B1A6B017C0120E030E040EA52E40E9497
:1009C000981B1816D4F580E090E0A0EAB2E480937A
:1009D0000C0190930D01A0930E01B0930F018DC1F6
:1009E00086E00E948D0D892B09F087C1809121013D
:1009F00090912201A0912301B09124018093F802EB
:100A00009093F902A093FA02B093FB0220E030E049
:100A100040E85FE360910C0170910D0180910E013F
:100A200090910F010E948A1A6B017C0120E030E056
:100A3000A9010E94DF1887FD09C0C0920C01D09265
:100A40000D01E0920E01F0920F0157C110920C01BE
:100A500010920D0110920E0110920F014EC184E010
:100A60000E948D0D892B09F05DC08091210190912C
:100A70002201A0912301B09124018093F802909368
:100A8000F902A093FA02B093FB02C0910101D09148
:100A9000020184E0CC0FDD1F8A95E1F7CF5CDE4FC9
:100AA00088819981AA81BB81809318019093190153
:100AB000A0931A01B0931B0120E03AEB4BE55AE4F6
:100AC0006C817D818E819F810E9445190E94691BE6
:100AD00060931C0170931D0180931E0190931F0170
:100AE00088859985AA85BB8580930401909305012B
:100AF000A0930601B09307018C859D85AE85BF85C7
:100B000080930C0190930D01A0930E01B0930F01FF
:100B10001092200161E083E00E94B60D81E0809395
:100B20000301EBC085E00E948D0D892BE9F48091D3
:100B3000210190912201A0912301B0912401809381
:100B4000F8029093F902A093FA02B093FB0280910D
:100B500001019091020101968A30910524F11092D1
:100B6000020110920101C9C086E00E948D0D892BFF
:100B700009F0C3C08091210190912201A09123012D
:100B8000B09124018093F8029093F902A093FA02A5
:100B9000B093FB028091010190910201019797FFB0
:100BA00002C089E090E09093020180930101A5C00A
:100BB00084E00E948D0D892B91F480912101909108
:100BC0002201A0912301B09124018093F802909317
:100BD000F902A093FA02B093FB0284E08CC085E096
:100BE0000E948D0D892B69F5809121019091220140
:100BF000A0912301B09124018093F8029093F9020F
:100C0000A093FA02B093FB022DEC3CEC4CEC5DE3BC
:100C10006091140170911501809116019091170156
:100C20000E948B1A6B017C0120E030E040EA50E426
:100C30000E94981B18169CF580E090E0A0EAB0E4B2
:100C40003BC086E00E948D0D892B09F056C0809133
:100C5000210190912201A0912301B0912401809360
:100C6000F8029093F902A093FA02B093FB022DECE4
:100C70003CEC4CEC5DE360911401709115018091A6
:100C80001601909117010E948A1A6B017C012DECCC
:100C90003CEC4CEC5DE30E94DF1887FD09C0C0927C
:100CA0001401D0921501E0921601F092170125C0AF
:100CB0008DEC9CECACECBDE380931401909315019A
:100CC000A0931601B093170118C084E00E948D0D07
:100CD000892B99F48091210190912201A091230107
:100CE000B09124018093F8029093F902A093FA0244
:100CF000B093FB0282E080932001DF91CF91FF90BF
:100D0000EF90DF90CF900895CF92DF92EF92FF9215
:100D1000CF93DF93B0917303882311F0AB2F01C001
:100D2000A0E08091740390E0880F991F825C9E4F31
:100D3000C0907903D0907A03E0907B03F0907C031D
:100D400020E030E0FC01C591D491E881EB23A901BA
:100D500060E070E0EA130CC02F5F3F4F4C155D055B
:100D60006E057F0578F33FEF2FEF8FEF9FEF03C006
:100D7000322F252FCB01632F722FDF91CF91FF9060
:100D8000EF90DF90CF900895009769F0FC010190FB
:100D90000020E9F73197AF01481B590BBC0183E5EF
:100DA00093E00C94F80080E090E008958F929F9279
:100DB000AF92BF92CF92DF92EF92FF920F931F9369
:100DC000CF93DF938C01EB01809185039091860393
:100DD0000E949103882309F43DC0B80180918503E6
:100DE000909186030E94720340E06EEB8091850330
:100DF000909186030E943E038E015E0189E0A80E59
:100E0000B11C809085039090860388E0C82ED12C79
:100E1000F12CEE24E394C4010E94EB028111FE2820
:100E2000EE0CE1E0CE1AD108B1F7F801F1928F0192
:100E3000EA15FB0531F780918503909186030E94A6
:100E40009103813039F468E0CE010E94D30291E031
:100E50002885281390E0892FDF91CF911F910F9162
:100E6000FF90EF90DF90CF90BF90AF909F908F90CA
:100E70000895CF92DF92EF92FF920F931F93CF933B
:100E8000DF93CDB7DEB7C054D1400FB6F894DEBFC4
:100E90000FBECDBF0E945B0E0091750310917603CB
:100EA00020917703309178036B017C01C01AD10A3D
:100EB000E20AF30A40EDC41647E0D406E104F10467
:100EC00018F480917D03CAC0609375037093760314
:100ED00080937703909378031092700310926F03BE
:100EE00010926E0310926D0310926C0362E0809179
:100EF00071030E94E50D61E070E080E090E00E94E7
:100F0000210E61E0809171030E94E50D60E0809107
:100F100071030E94B60D809172038551823028F4CE
:100F20008BE291E10197F1F706C064E170E080E0A7
:100F300090E00E94210E62E0809171030E94E50D15
:100F400080917E0390E08230910538F0880F991FE0
:100F5000880F991F05970197F1F7F89480E00E9498
:100F600084066F3F7F4F8F4F9F4F21F410927D0378
:100F7000789441C081E00E9484066F3F7F4F8F4F7D
:100F80009F4FA1F38E010F5F1F4F6E012FEBC21A0F
:100F90002EEFD20A780180E00E948406F701608378
:100FA00071838283938381E00E948406F7016483C6
:100FB000758386839783F8E0EF0EF11CEC14FD0433
:100FC00051F7789420E030E0F801C080D180E280D1
:100FD000F3804481558166817781FFEFCF16DF066C
:100FE000EF06FF0631F04F3F8FEF5807680778078D
:100FF00021F410927D0380E031C0F90183E0F59582
:10100000E7958A95E1F7E459FC4F8081880FC41673
:10101000D506E606F70608F4816080832F5F3F4F10
:10102000085F1F4F2832310579F62091700330E0B8
:1010300040916C0380916D0390E0840F911D40916D
:101040006E03840F911D40916F03840F911D9927AA
:101050002817390771F681E080937D03C05CDE4F6D
:101060000FB6F894DEBF0FBECDBFDF91CF911F91B9
:101070000F91FF90EF90DF90CF9008950F931F9303
:10108000CF93DF938C01C0E0D0E0F801EC0FFD1F9F
:101090006491662341F083E593E00E943601892B39
:1010A00011F02196F2CFCE01DF91CF911F910F91D8
:1010B0000895682F83E593E00C9436012F923F92B8
:1010C0004F925F926F927F928F929F92AF92BF9258
:1010D000CF92DF92EF92FF920F931F93CF93DF9304
:1010E000CDB7DEB7A4970FB6F894DEBF0FBECDBF65
:1010F0004B015C01F42E9B01AC010E949D1B8823D7
:1011000019F089EA92E027C024013501E89477F8C4
:101110002FEF3FEF4FE75FE7C301B2010E949D1B36
:1011200081110DC02FEF3FEF4FE75FE7C301B20121
:101130000E94DF1818161CF48DEA92E00CC02FEF05
:101140003FEF4FE75FE4C501B4010E94981B1816FA
:101150002CF481EB92E00E94C406B4C02FEF3FEF65
:101160004FE75FECC501B4010E94DF1887FDF1CFA6
:1011700020E030E0A901C501B4010E94DF1887FF1B
:1011800009C08DE20E9459083C01B7FAB094B7F843
:10119000B09402C0612C712C10E060E070E080E03F
:1011A0009FE31F1540F420E030E040E251E40E944C
:1011B000F71A1F5FF6CFA50194010E948B1A4B010D
:1011C0005C010E94691B6AA3C72ED82EE92E19A2C2
:1011D000262F372F482F592F8E010F5D1F4F0BA33E
:1011E0001CA39AE0292E312C412C512CCA01B901A3
:1011F000A20191010E944E1A605DF80162938F0175
:10120000211531054105510589F7CF010E94C4061A
:101210008301080F191FFF2009F453C06AA17C2D18
:101220008D2D9E2D0E94E4189B01AC01C501B401D7
:101230000E948A1A4B015C018EE20E945908080F35
:10124000191F8AE0282E312C412C512C20E030E04F
:1012500040E251E4C501B4010E9445194B015C0113
:101260000E94691B9B0140E050E019A2CBA0DCA0CA
:10127000762E3AA3642EE52ECA01B901A20191018E
:101280000E944E1A605DF60162936F0121153105CF
:101290004105510589F7CF010E94C406080F191FA7
:1012A000672D7AA1862D9E2D0E94E4189B01AC012A
:1012B000C501B4010E948A1A4B015C01FA94F11035
:1012C000C5CFC801A4960FB6F894DEBF0FBECDBF40
:1012D000DF91CF911F910F91FF90EF90DF90CF9012
:1012E000BF90AF909F908F907F906F905F904F9046
:1012F0003F902F900895CF93DF93CDB7DEB7289717
:101300000FB6F894DEBF0FBECDBF4091D101509112
:10131000D2016091D3017091D4014D835E836F83BC
:1013200078874091D5015091D6016091D701709195
:10133000D80149835A836B837C8320915A03821797
:1013400010F08FEF820F30915B0390E0FE01E80F09
:10135000F91F303121F4243011F4618101C065811D
:10136000606883E593E028960FB6F894DEBF0FBE61
:10137000CDBFDF91CF910C94D00130914603313233
:1013800008F04BC0809122038111FCCF909145035E
:1013900022E02093220321E0209321032FEF2093CA
:1013A000200310921F0330931E03E5E2F3E0AEEF3B
:1013B000B2E020E0321721F041914D932F5FFACF38
:1013C0001092FD022091FD02990F922B9093FD0245
:1013D0009091FC02913061F41092FC029091FD0218
:1013E0009093BB009091BC0093FDF8CF95EC01C0A9
:1013F00095EE9093BC00909122039230E1F390918E
:1014000020039F3F79F080912003803241F080914A
:101410002003803331F084E005C081E003C082E026
:1014200001C083E01092240310924603109223031C
:101430000895FC0123812223B1F08181682B608310
:10144000828191E0909323038093450310922403BB
:101450001092460387E493E00E947D0B0E94BD0931
:10146000282F30E002C020E030E081E090E0232B24
:1014700011F080E090E00895CF93DF93CDB7DEB711
:1014800029970FB6F894DEBF0FBECDBFFC012081B7
:101490002031D1F0BE016F5F7F4F0E94D6068823B6
:1014A00089F08D818F3361F020F48F3159F489E018
:1014B0000CC08F3519F08F3739F004C08BE005C0B0
:1014C0008AE003C080E001C08CE029960FB6F89452
:1014D000DEBF0FBECDBFDF91CF910895BF92CF92F7
:1014E000DF92EF92FF920F931F93CF93DF93EC0164
:1014F0006B018D85811105C0CE010E949103811180
:1015000005C01B861D861C8680E060C040E060EF41
:10151000CE010E943E0301E0E12CB12C11E0CE018E
:101520000E94EB02F82ECE010E94EB0291E0F9122C
:1015300003C08130B1F434C02E2D30E0F8121BC04E
:101540008B85181738F4FE01E20FF31F8381802387
:1015500041F402C0811729F0F12C193058F41C878E
:1015600009C0FE01EE0DF11D8381802B8383FF24D2
:10157000F39409C0B12EFE01E20FF31F9381802F77
:101580008095892383836F2DCE010E940F031F5FF7
:10159000000F11F4E39401E087E08E1508F0BFCF4F
:1015A000113408F4AECFBB86B11002C081E08D8744
:1015B0008B81882309F4A5CFDE011396F6012B96C3
:1015C0008D918193CA17DB07D9F781E0DF91CF9125
:1015D0001F910F91FF90EF90DF90CF90BF900895F3
:1015E00085ED8093BC008091BC0084FDFCCF1092FF
:1015F0002203089540912C04262F30E0240F311D42
:1016000021323105DCF4209122032430C9F4FC019D
:1016100080E090E0861758F430912C042191DC0191
:10162000A45FBB4FA30FB11D2C930196F3CF809104
:101630002C04680F60932C0480E0089581E00895E5
:1016400082E00895089508950895E091DE03809161
:10165000DD03E81730F4F0E0E451FC4F808190E0C6
:1016600008958FEF9FEF08959091DE038091DD0341
:10167000981750F4E92FF0E0E451FC4F208130E05E
:101680009F5F9093DE0302C02FEF3FEFC9010895E3
:101690008091DD0390E02091DE03821B9109089583
:1016A000CF92DF92EF92FF920F931F93CF93DF932E
:1016B0007C01CB018A0120912303222389F0EB01D5
:1016C0006B01C40ED51ECC15DD0569F06991D701FB
:1016D000ED91FC910190F081E02DC7010995F3CFC8
:1016E000642F0E94FA0AC801DF91CF911F910F91D8
:1016F000FF90EF90DF90CF900895CF93DF931F92EC
:10170000CDB7DEB76983209123032223D1F0209146
:101710004603203240F021E030E0FC013383228395
:1017200080E090E015C080912403E82FF0E0EB5DAD
:10173000FC4F998190838F5F8093240380934603AD
:1017400005C061E0CE0101960E94FA0A81E090E0B6
:101750000F90DF91CF910895833081F028F481308C
:1017600099F08230A1F008958730A9F08830B9F05F
:101770008430D1F4809180008F7D03C080918000FF
:101780008F7780938000089584B58F7702C084B5E9
:101790008F7D84BD08958091B0008F7703C08091C4
:1017A000B0008F7D8093B00008953FB7F89480918A
:1017B000E8039091E903A091EA03B091EB0326B509
:1017C000A89B05C02F3F19F00196A11DB11D3FBF79
:1017D000BA2FA92F982F8827820F911DA11DB11D07
:1017E000BC01CD0142E0660F771F881F991F4A9503
:1017F000D1F70895FF920F931F93CF93DF938C013E
:10180000F62EE0918503F0918603138615861486E3
:10181000DF011B9633961E92EA17FB07E1F7C0E043
:10182000B80180918503909186030E946E0AD82F9B
:10183000882369F0FC1208C067E0C8010E94D30247
:10184000F8019781891721F0CF5FFC1648F7D0E0A7
:101850008D2FDF91CF911F910F91FF900895EF92FF
:10186000FF920F931F93CF938C01FC0184E0C0E0A3
:1018700060FF02C09589C92B669581503196811110
:10188000F7CF413011F4F8014489F8018585C82B60
:10189000C42B7801FEE0EF0EF11CF80162896C2B7D
:1018A000C7010E94190AF801628960956C23C7017B
:1018B000CF911F910F91FF90EF900C94190A1F92F6
:1018C0000F920FB60F9211242F933F934F935F9374
:1018D0006F937F938F939F93AF93BF93EF93FF93F8
:1018E0008091B900887F803609F49CC068F5883201
:1018F00009F45BC090F4803109F454C038F48823B3
:1019000009F4F6C0883009F44DC0F6C0883109F4F6
:101910004CC0803209F45DC0EFC0803409F468C067
:1019200048F4803309F455C0883309F0E5C080934A
:101930002003D8C0803509F44FC0883509F45DC054
:10194000883409F0D9C0D6C0883909F4C7C0A8F4D2
:10195000883709F467C038F4883609F463C08037E3
:1019600009F460C0C9C0883809F4B8C0803909F4E6
:101970005FC0803809F0C0C05BC0803B09F486C0FE
:1019800038F4803A09F466C0883A09F47FC0B4C0DC
:10199000803C09F4A7C0883C09F4A4C0883B09F442
:1019A0008AC0AAC08091FD0210C090911F0380914F
:1019B0001E03981770F5E0911F0381E08E0F80934E
:1019C0001F03F0E0E250FD4F80818093BB0085EC67
:1019D00086C0809320038EC0E0911F0381E08E0FAC
:1019E00080931F038091BB00F0E0E250FD4F8083A5
:1019F00090911F0380911E036EC0E0911F0381E050
:101A00008E0F80931F038091BB00F0E0E250FD4FEA
:101A100080838091210381116DC081E08093FC025D
:101A200084EA61C083E08093220310924E04CFCFFA
:101A300080914E04803208F051C0E0914E0481E064
:101A40008E0F80934E048091BB00F0E0E25DFB4F6F
:101A50008083BDCF85EC8093BC00109222038091DF
:101A60004E04803230F4E0914E04F0E0E25DFB4F32
:101A7000108260914E0470E0E091E103F091E20386
:101A80008EE294E0099510924E0436C084E0809373
:101A9000220310922D0410922C04E091DF03F091A8
:101AA000E003099580912C04811105C081E08093A9
:101AB0002C0410920C04E0912D0481E08E0F809391
:101AC0002D04F0E0E45FFB4F80818093BB00909198
:101AD0002D0480912C04981708F479CF85E8809321
:101AE000BC000AC085EC8093BC001092220304C0A5
:101AF000109220030E94F00AFF91EF91BF91AF91E5
:101B00009F918F917F916F915F914F913F912F9115
:101B10000F900FBE0F901F901895CF93DF93282F33
:101B200030E0F901EC57FE4F8491F901E45AFE4F81
:101B3000D491F901E85BFE4FC491CC2391F081115F
:101B40000E94AC0BEC2FF0E0EE0FFF1FE25CFE4FAB
:101B5000A591B491EC91ED2381E090E021F480E037
:101B600002C080E090E0DF91CF9108951F93CF9362
:101B7000DF93282F30E0F901EC57FE4F8491F901F3
:101B8000E45AFE4FD491F901E85BFE4FC491CC2397
:101B9000C1F0162F81110E94AC0BEC2FF0E0EE0F7C
:101BA000FF1FE658FE4FA591B4919FB7F89411110D
:101BB00004C08C91D095D82302C0EC91DE2BDC932D
:101BC0009FBFDF91CF911F910895CF93DF9390E056
:101BD000FC01E45AFE4F2491FC01E85BFE4F849126
:101BE000882361F190E0880F991FFC01E059FE4FB6
:101BF000C591D491FC01E658FE4FA591B4916111B5
:101C000009C09FB7F8948881209582238883EC913E
:101C10002E230BC0623061F49FB7F8948881322F75
:101C2000309583238883EC912E2B2C939FBF06C085
:101C30008FB7F894E8812E2B28838FBFDF91CF9147
:101C400008958F929F92AF92BF92CF92DF92EF92C0
:101C5000FF926B017C010E94D50B4B015C01C1140A
:101C6000D104E104F104F1F00E94D50BDC01CB01B9
:101C700088199909AA09BB09883E9340A105B105B5
:101C800070F321E0C21AD108E108F10888EE880E4D
:101C900083E0981EA11CB11CC114D104E104F1041D
:101CA00019F7DDCFFF90EF90DF90CF90BF90AF900E
:101CB0009F908F9008952FB7F8946091E4037091EE
:101CC000E5038091E6039091E7032FBF08951F92EB
:101CD0000F920FB60F9211242F933F938F939F93E0
:101CE000AF93BF938091E4039091E503A091E60345
:101CF000B091E7033091E30323E0230F2D3720F465
:101D00000196A11DB11D05C026E8230F0296A11D55
:101D1000B11D2093E3038093E4039093E503A09324
:101D2000E603B093E7038091E8039091E903A09163
:101D3000EA03B091EB030196A11DB11D8093E80366
:101D40009093E903A093EA03B093EB03BF91AF91A3
:101D50009F918F913F912F910F900FBE0F901F90E9
:101D60001895CF93DF93CDB7DEB761970FB6F89490
:101D7000DEBF0FBECDBF789484B5826084BD84B5CC
:101D8000816084BD85B5826085BD85B5816085BD76
:101D900080916E00816080936E001092810080912E
:101DA00081008260809381008091810081608093B6
:101DB0008100809180008160809380008091B100DB
:101DC00084608093B1008091B00081608093B00006
:101DD00080917A00846080937A0080917A0082609A
:101DE00080937A0080917A00816080937A0080915C
:101DF0007A00806880937A001092C10062E084E0EB
:101E00000E94E50D62E085E00E94E50D62E086E05B
:101E10000E94E50D61E089E00E94E50D61E083E04C
:101E20000E94E50D61E087E00E94E50D61E083E03E
:101E30000E94B60D60E089E00E94B60D60E087E088
:101E40000E94B60DE0918503F091860313861586F6
:101E50001486DF011B9633961E92AE17BF07E1F77B
:101E6000109283031092840311E0BE016F5F7F4FD5
:101E700080918503909186030E946E0A882309F45D
:101E800062C067E0CE0101960E94D3029885891353
:101E9000ECCF80917F03811128C0809185039091C0
:101EA00086030E949103BE016F5F7F4F809185037F
:101EB000909186030E94720340E064EB8091850359
:101EC000909186030E943E03809185039091860342
:101ED0000E94EB02082F80918503909186030E9457
:101EE0009103002311F40C94991700918003CE0103
:101EF00001960E943C0A801718F48091800304C068
:101F0000CE0101960E943C0A809380038091830356
:101F10008F5F809383038981883211F40C949D171D
:101F200048F4803111F40C949D17823209F09DCF52
:101F30000C949D178B3311F40C949D17823409F087
:101F400094CF0C949D1760E084EC92E00E94FA0B11
:101F500084EC92E00E943C0A8C3009F49DC0BE01E2
:101F60006F5F7F4F84EC92E00E94D606882309F4CD
:101F700093C08091C402803109F48EC08FE78D83B5
:101F800080918503909186030E94910364EC72E036
:101F900080918503909186030E94720340E06EE475
:101FA00080918503909186030E943E0340E06B81FF
:101FB00080918503909186030E943E0340E06C81EE
:101FC00080918503909186030E943E038091C40214
:101FD000803141F040E06D818091850390918603CE
:101FE0000E943E0380918503909186030E94910395
:101FF00064EC72E080918503909186030E947203E5
:1020000040917F0368E480918503909186030E944C
:102010003E0364E170E080E090E00E94210E809138
:102020007F03882331F06AE070E080E090E00E9456
:10203000210E80918503909186030E9491038091E7
:1020400080038C3008F48CE0809380038C3021F185
:102050008CE08093800300E010E08091830390E0A7
:1020600008171907CCF4602FCE010A960E94FA0BCC
:10207000F0908003CE010A960E943C0A8F1518F456
:102080008091800304C0CE010A960E943C0A80938E
:1020900080030F5F1F4FE1CF1092810362E08091B8
:1020A00071030E94E50D0E945B0EDC01CB01805D97
:1020B0009740A109B1098093750390937603A0938B
:1020C0007703B093780387E380937E030E94C8036D
:1020D00020E042E060E183E593E00E94680261E075
:1020E00083E593E00E94D0018BE39FE10197F1F734
:1020F00080E00E947B0989E790E00E943E0881E031
:102100000E947B0988E690E00E943E0868EB7BE035
:1021100080E090E00E94210E1092000110E0212E3C
:1021200010E0312E0E945B0E6B017C016093210157
:102130007093220180932301909324010E94C8038D
:102140008091D2029091D302009721F0019709F477
:1021500066C01DC180918503909186030E94910302
:1021600040E06CEC80918503909186030E943E03D1
:1021700040917F0364E480918503909186030E94DF
:102180003E03809181038823D9F1E0918003E950D7
:10219000E33040F4F0E0EE0FFF1FE55DFE4F0081FD
:1021A000118102C00EEE12E080918203882311F1AA
:1021B00080917F0381111EC00E945B0E2B013C01A8
:1021C0004801110FAA08BB088091850390918603EE
:1021D0000E94EB028130A1F00E945B0EDC01CB017A
:1021E00088199909AA09BB0984159505A605B7059B
:1021F00058F306C0B801110F880B990B0E94210EED
:10220000C092CE02D092CF02E092D002F092D102E0
:1022100001E010E01093D3020093D202B8C0809185
:10222000CE029091CF02A091D002B091D102A7012D
:102230009601281B390B4A0B5B0BDA01C90180326E
:102240009340A105B10508F4A2C08091CC02909101
:10225000CD020196833091052CF49093CD028093AA
:10226000CC0204C01092CD021092CC020091CC029C
:102270001091CD02BE016F5F7F4F84EC92E00E940F
:10228000D606882369F12A8130E0C901982F882772
:10229000990F990F990F698148E0649FB00111244B
:1022A0009C01262B372B8091C4028031E1F4688594
:1022B00070E08F81FB01E81BF109CF019695982F03
:1022C0008827979587950E943A1A60517109207F57
:1022D000F3E0220F331FFA95E1F7620F731F04C07A
:1022E00060E874EE01C0B9016138F4EE7F076CF06C
:1022F000072E000C880B990B0E94E61820E030E0B6
:1023000040E05CE30E94451904C060E070E08EEF9D
:1023100092EC000F111F000F111FF801E854FD4F40
:10232000608371838283938320E030E0A901609110
:10233000B8027091B9028091BA029091BB020E94DA
:102340008B1A2091BC023091BD024091BE02509187
:10235000BF020E948B1A2091C0023091C1024091AD
:10236000C2025091C3020E948B1A20E030E040E488
:1023700050E40E94F71A609310017093110180934A
:102380001201909313011092D3021092D202809105
:10239000E0029091E102A091E202B091E302970184
:1023A0008601081B190B2A0B3B0BD901C801803D84
:1023B0009740A105B10508F463C00E94390788233E
:1023C000D1F1809172038B30B0F18D30A8F085513E
:1023D000823088F560916C0370916D0376276727D2
:1023E000762780E090E00E94E4182DEC3CEC4CEC69
:1023F0005DE30E9445191CC060916D0370E080E0B0
:1024000090E00E94E6182DEC3CEC4CEC5DE30E9461
:1024100045192B013C0160916C0370E080E090E075
:102420000E94E6189B01AC01C301B2010E948B1A05
:102430002B013C0106C0412C512C40EC642E4FE78F
:10244000742EC092E002D092E102E092E202F09299
:10245000E302A3019201C301B2010E949D1B8823E4
:1024600009F472C58091DE029091DF02019690938B
:10247000DF028093DE0206971CF0E0E0F0E00995B1
:1024800010912001123009F48EC230F4112359F05A
:10249000113009F425C197C2133009F484C21430F5
:1024A00009F481C290C28091B702C0902101D090FE
:1024B0002201E0902301F090240181110BC0C09211
:1024C000F402D092F502E092F602F092F702F1E007
:1024D000F093B7028091F4029091F502A091F60278
:1024E000B091F702B701A601481B590B6A0B7B0B91
:1024F00080911C0190911D01A0911E01B0911F01BE
:10250000481759076A077B0730F01092B70201E0BD
:102510000093200158C28091B6022091140130919D
:1025200015014091160150911701882309F46CC0E0
:10253000609118017091190180911A0190911B010D
:102540000E948B1A209110013091110140911201CB
:10255000509113010E94DF1818160CF434C28091B8
:10256000F0029091F102A091F202B091F3022601E3
:102570003701481A590A6A0A7B0A19E8411613E119
:1025800051066104710408F41EC260E089E00E94F3
:10259000B60D60E087E00E94B60D1092B602C3014E
:1025A000B2010E94E41820E030E048EC52E40E94BE
:1025B00045192B013C018091EC029091ED02A09114
:1025C000EE02B091EF02A7019601281B390B4A0BCE
:1025D0005B0BCA01B9010E94E4189B01AC01C30165
:1025E000B2010E94F71A6093E8027093E9028093A7
:1025F000EA029093EB02C092EC02D092ED02E092DC
:10260000EE02F092EF02DFC16091180170911901A2
:1026100080911A0190911B010E948A1A2091100149
:102620003091110140911201509113010E94981BA9
:1026300087FDC9C14090EC025090ED026090EE021F
:102640007090EF02D701C60184199509A609B70950
:1026500089389341A105B10508F4B5C141E0409323
:10266000B60261E089E00E94B60D61E087E00E9459
:10267000B60D8090F0029090F102A090F202B0901E
:10268000F302C301B201681979098A099B090E9402
:10269000E41820E030E048EC52E40E9445192B0198
:1026A0003C01C701B601681979098A099B090E9492
:1026B000E4189B01AC01C301B2010E94F71A6093B8
:1026C000E8027093E9028093EA029093EB02C092D1
:1026D000F002D092F102E092F202F092F30273C1A2
:1026E0000091B60220E030E040E85FE360910C0129
:1026F00070910D0180910E0190910F0101118BC01D
:102700000E948B1A209108013091090140910A0121
:1027100050910B010E94DF1818160CF4A3C04090D2
:102720002101509022016090230170902401C090FB
:10273000EC02D090ED02E090EE02F090EF02D301B7
:10274000C2018C199D09AE09BF0989389341A105C1
:10275000B10508F487C02091140130911501409112
:10276000160150911701609104017091050180914B
:102770000601909107010E948A1A20911001309160
:10278000110140911201509113010E94981B1816DB
:102790000CF068C01093B60261E089E00E94B60DAB
:1027A00061E087E00E94B60D8090F0029090F10207
:1027B000A090F202B090F302C701B601681979093E
:1027C0008A099B090E94E41820E030E048EC52E4BA
:1027D0000E9445196B017C01C301B2016819790996
:1027E0008A099B090E94E4189B01AC01C701B6014C
:1027F0000E94F71A6093E8027093E9028093EA025C
:102800009093EB024092F0025092F1026092F20239
:102810007092F3029CC00E948A1A209108013091A4
:10282000090140910A0150910B010E94981B87FDFC
:1028300019C08091210190912201A0912301B091B2
:1028400024014091F0025091F1026091F2027091E6
:10285000F302841B950BA60BB70B89389341A10596
:10286000B10508F520911401309115014091160130
:10287000509117016091040170910501809106014A
:10288000909107010E948B1A209110013091110143
:1028900040911201509113010E94DF1887FF57C029
:1028A000002309F454C060E089E00E94B60D60E0A6
:1028B00087E00E94B60D1092B602C0902101D09020
:1028C0002201E0902301F09024018091F002909188
:1028D000F102A091F202B091F30297018601081B68
:1028E000190B2A0B3B0BC901B8010E94E41820E028
:1028F00030E048EC52E40E9445192B013C018091E4
:10290000EC029091ED02A091EE02B091EF02A701CE
:102910009601281B390B4A0B5B0BCA01B9010E94B7
:10292000E4189B01AC01C301B2010E94F71A609345
:10293000E8027093E9028093EA029093EB02C0925E
:10294000EC02D092ED02E092EE02F092EF02909152
:1029500003018091B60291110AC08823A1F161E0C0
:1029600083E00E94B60D31E0309303012CC0811149
:102970002AC08091210190912201A0912301B09160
:1029800024014091EC025091ED026091EE027091B1
:10299000EF02841B950BA60BB70B89399A43A1054F
:1029A000B10588F00AC060E089E00E94B60D60E0E1
:1029B00087E00E94B60D1092B60260E083E00E94AC
:1029C000B60D1092030140912101509122016091B6
:1029D0002301709124018091E4029091E502A0917D
:1029E000E602B091E7028A019B01081B190B2A0B32
:1029F0003B0B093C11052105310508F493C24093B6
:102A0000E4025093E5026093E6027093E70280913E
:102A100020018111ECC08091F4029091F502A09107
:102A2000F602B091F702481B590B6A0B7B0B8091A1
:102A30001C0190911D01A0911E01B0911F018C01FC
:102A40009D01041B150B260B370BC901B8010E9411
:102A5000E41820E03AEB4BE55AE40E94F71A6B01C8
:102A60007C0180E00E947B0989E191E00E943E08A0
:102A700020E030E040E251E4C701B6010E94DF18D7
:102A800087FF03C041E050E006C087E191E00E946B
:102A90003E0840E050E0C701B6010E945E0880E1B8
:102AA00091E00E943E0820E030E040E251E4609175
:102AB00008017091090180910A0190910B010E9417
:102AC000DF1887FF04C08EE091E00E943E0860910D
:102AD00008017091090180910A0190910B0140E079
:102AE00050E00E945E088CE091E00E943E0881E088
:102AF0000E947B0920E030E040E251E46091100147
:102B00007091110180911201909113010E94DF18C0
:102B100087FF04C08AE091E00E943E0860911001A6
:102B200070911101809112019091130141E050E0E8
:102B30000E945E0888E091E00E943E0820E030E0BC
:102B400040E251E4609118017091190180911A01DD
:102B500090911B010E94DF1887FF04C086E091E07E
:102B60000E943E08609118017091190180911A012C
:102B700090911B0140E050E00E945E088FED0E94A2
:102B8000590881E091E00E943E08C090E802D09090
:102B9000E902E090EA02F090EB0220E030E040E24F
:102BA00051E4C701B6010E94DF1887FF03C08EEF12
:102BB00090E00CC020E030E048EC52E4C701B601E0
:102BC0000E94DF1887FF04C08CEF90E00E943E084F
:102BD0006091E8027091E9028091EA029091EB0223
:102BE00040E050E00E945E088AEF90E099C1813099
:102BF00009F0ABC080E00E947B098DEE90E00E945E
:102C00003E08C090E802D090E902E090EA02F0901D
:102C1000EB0220E030E040E251E4C701B6010E943F
:102C2000DF1887FF03C08AEE90E00CC020E030E0A0
:102C300048EC52E4C701B6010E94DF1887FF04C0C8
:102C400088EE90E00E943E086091E8027091E902EF
:102C50008091EA029091EB0240E050E00E945E0811
:102C600086EE90E00E943E0881E00E947B0920E011
:102C700030E040E251E460911001709111018091C7
:102C80001201909113010E94DF1887FF04C084EEA7
:102C900090E00E943E0860911001709111018091B6
:102CA00012019091130141E050E00E945E088FED07
:102CB0000E94590880EE90E00E943E0820E030E03B
:102CC00040E251E4609108017091090180910A018C
:102CD00090910B010E94DF1887FF04C08EED90E0F9
:102CE0000E943E08609108017091090180910A01DB
:102CF00090910B0141E050E00E945E088CED90E065
:102D00000E943E0820E030E040E251E460910C0176
:102D100070910D0180910E0190910F010E94DF18BA
:102D200087FF04C08AED90E00E943E0860910C018C
:102D300070910D0180910E0190910F0140E050E0E3
:102D40000E945E0888ED90E0EBC0823009F069C017
:102D500080E00E947B09809101019091020116E0C0
:102D6000189FF001199FF00D1124EF55FC4F44817D
:102D700055816081718183E593E00E94F80081E0D4
:102D80000E947B0985ED90E00E943E08E0910101E0
:102D9000F091020124E0EE0FFF1F2A95E1F7EF5CAE
:102DA000FE4F608171818281938140E050E00E94FA
:102DB0005E088FED0E9459088EEC90E00E943E085C
:102DC000E0910101F091020134E0EE0FFF1F3A950E
:102DD000E1F7EF5CFE4F20E030E040E251E4648137
:102DE0007581868197810E94DF1887FF04C08CEC73
:102DF00090E00E943E08E0910101F091020194E010
:102E0000EE0FFF1F9A95E1F7EF5CFE4F648175812D
:102E10008681978140E050E00E945E0888EC90E057
:102E20007FC0833001F580E00E947B0987EB90E052
:102E30000E943E0881E00E947B098FEA90E00E9498
:102E40003E086091140170911501809116019091D6
:102E5000170141E050E00E945E088FED0E94590882
:102E600089EA90E05DC0843009F05CC080E00E9497
:102E70007B0988E990E00E943E0881E00E947B097E
:102E800081E00E947B0985E990E00E943E0820E0F5
:102E900030E040E251E460911001709111018091A5
:102EA0001201909113010E94DF1887FF04C083E98B
:102EB00090E00E943E086091100170911101809194
:102EC00012019091130141E050E00E945E088FEDE5
:102ED0000E9459088EE890E00E943E0820E030E011
:102EE00040E251E4609108017091090180910A016A
:102EF00090910B010E94DF1887FF04C08CE890E0DE
:102F00000E943E08609108017091090180910A01B8
:102F100090910B0141E050E00E945E088AE890E049
:102F20000E943E082114310409F4FCC80E940000EC
:102F3000F9C810937F030C94750F809184038F5F01
:102F4000809384030C94350F1092DF021092DE02FE
:102F50000091DC021091DD02F801EE0FFF1FEE0F71
:102F6000FF1FEC52FD4F408251826282738220E04B
:102F700030E0A9016091D4027091D5028091D6020F
:102F80009091D7020E948B1A2091D8023091D902D9
:102F90004091DA025091DB020E948B1A20E030E06F
:102FA00040E05FE30E9445196093080170930901B6
:102FB00080930A0190930B010F5F1F4F02301105A0
:102FC0002CF01092DD021092DC025ACA1093DD023E
:102FD0000093DC0255CACF93DF93CDEDD3E0269763
:102FE000888199810E943A1C83E0C13AD807B9F7D9
:102FF000DF91CF91089510924A031092490388EE11
:1030000093E0A0E0B0E080934B0390934C03A09337
:103010004D03B0934E038DED91E090934803809360
:1030200047036FEF71E081EA93E00E94820160E163
:1030300072E087EA93E00E94820161E272E08DEA29
:1030400093E00E94820162E372E083EB93E00E94CE
:10305000820163E472E089EB93E00E94820164E5FF
:1030600072E08FEB93E00E94820165E672E085ECEE
:1030700093E00E94820166E772E08BEC93E00E948D
:10308000820167E872E081ED93E00E94820168E9C5
:1030900072E087ED93E00E94820160E082E00E948E
:1030A000E50DEEE5F1E0E491E0939303EAE4F1E06D
:1030B000E491F0E0EE0FFF1FE25CFE4F85919491EA
:1030C000909395038093940310929E031092A00313
:1030D00010929F03EEE9F3E086E993E012928E17D7
:1030E0009F07E1F783E993E090938603809385033C
:1030F000109283031092840310927F0389E08093DF
:10310000800381E080938103809382031092920375
:10311000109291039AE0909371039BE09093720355
:10312000E6E6F1E0E491E0937303E2E5F1E0E49197
:10313000E093740340E85EE360E070E0409379035D
:1031400050937A0360937B0370937C031092560331
:10315000109255032FEE31E0309354032093530324
:10316000109263039FEF9093620310926103109299
:10317000640397E290935E0310925F0310926003E2
:1031800010925D0310925C0394E09093650392E0CB
:10319000909366038093670380E18093680380E2E5
:1031A0008093690380E480936A0380E880936B03D3
:1031B00040E050E063E083E593E00C9422010E943C
:1031C000211908F481E00895E89409C097FB3EF4C2
:1031D00090958095709561957F4F8F4F9F4F992364
:1031E000A9F0F92F96E9BB279395F69587957795E2
:1031F0006795B795F111F8CFFAF4BB0F11F460FFA2
:103200001BC06F5F7F4F8F4F9F4F16C0882311F0F9
:1032100096E911C0772321F09EE8872F762F05C00D
:10322000662371F096E8862F70E060E02AF09A95A8
:10323000660F771F881FDAF7880F9695879597F99D
:103240000895990F0008550FAA0BE0E8FEEF161637
:103250001706E807F907C0F012161306E407F5078A
:1032600098F0621B730B840B950B39F40A2661F0FE
:10327000232B242B252B21F408950A2609F4A140A1
:10328000A6958FEF811D811D08950E9458190C94F9
:10329000C9190E94BB1938F00E94C21920F0952369
:1032A00011F00C94B2190C94B81911240C94FD1956
:1032B0000E94DA1970F3959FC1F3950F50E0551FE6
:1032C000629FF001729FBB27F00DB11D639FAA277B
:1032D000F00DB11DAA1F649F6627B00DA11D661FCA
:1032E000829F2227B00DA11D621F739FB00DA11DEB
:1032F000621F839FA00D611D221F749F3327A00DA5
:10330000611D231F849F600D211D822F762F6A2F40
:1033100011249F5750409AF0F1F088234AF0EE0FA5
:10332000FF1FBB1F661F771F881F91505040A9F7D2
:103330009E3F510580F00C94B2190C94FD195F3F2B
:10334000E4F3983ED4F3869577956795B795F7950E
:10335000E7959F5FC1F7FE2B880F911D9695879586
:1033600097F9089597F99F6780E870E060E0089505
:103370009FEF80EC089500240A941616170618068D
:103380000906089500240A94121613061406050669
:103390000895092E0394000C11F4882352F0BB0FFA
:1033A00040F4BF2B11F460FF04C06F5F7F4F8F4F5D
:1033B0009F4F089557FD9058440F551F59F05F3F98
:1033C00071F04795880F97FB991F61F09F3F79F047
:1033D00087950895121613061406551FF2CF4695C9
:1033E000F1DF08C0161617061806991FF1CF86954B
:1033F0007105610508940895E894BB27662777272F
:10340000CB0197F908952F923F924F925F926F925E
:103410007F928F929F92AF92BF92CF92DF92EF9264
:10342000FF920F931F93CF93DF93CDB7DEB7CA1BE5
:10343000DB0B0FB6F894DEBF0FBECDBF09942A8810
:10344000398848885F846E847D848C849B84AA84B8
:10345000B984C884DF80EE80FD800C811B81AA8145
:10346000B981CE0FD11D0FB6F894DEBF0FBECDBF10
:10347000ED01089597FB072E16F4009407D077FD11
:1034800009D00E94701A07FC05D03EF490958195F2
:103490009F4F0895709561957F4F0895A1E21A2E70
:1034A000AA1BBB1BFD010DC0AA1FBB1FEE1FFF1FE8
:1034B000A217B307E407F50720F0A21BB30BE40B38
:1034C000F50B661F771F881F991F1A9469F760957F
:1034D0007095809590959B01AC01BD01CF01089539
:1034E000AA1BBB1B51E107C0AA1FBB1FA617B7072A
:1034F00010F0A61BB70B881F991F5A95A9F7809546
:103500009095BC01CD010895EE0FFF1F0590F49139
:10351000E02D09945058BB27AA270E94A21A0C94A8
:10352000C9190E94BB1938F00E94C21920F039F461
:103530009F3F19F426F40C94B8190EF4E095E7FBBC
:103540000C94B219E92F0E94DA1958F3BA176207DE
:1035500073078407950720F079F4A6F50C94FC19FD
:103560000EF4E0950B2EBA2FA02D0B01B90190019E
:103570000C01CA01A0011124FF27591B99F0593FE2
:1035800050F4503E68F11A16F040A22F232F342F2A
:103590004427585FF3CF469537952795A795F04078
:1035A0005395C9F77EF41F16BA0B620B730B840B8D
:1035B000BAF09150A1F0FF0FBB1F661F771F881F45
:1035C000C2F70EC0BA0F621F731F841F48F487959D
:1035D00077956795B795F7959E3F08F0B0CF93958F
:1035E000880F08F09927EE0F9795879508950E9408
:1035F0000B1B0C94C9190E94C21958F00E94BB19E8
:1036000040F029F45F3F29F00C94B21951110C9449
:10361000FD190C94B8190E94DA1968F39923B1F3D3
:10362000552391F3951B550BBB27AA2762177307E8
:10363000840738F09F5F5F4F220F331F441FAA1F7C
:10364000A9F335D00E2E3AF0E0E832D09150504038
:10365000E695001CCAF72BD0FE2F29D0660F771FE6
:10366000881FBB1F261737074807AB07B0E809F0CC
:10367000BB0B802DBF01FF2793585F4F3AF09E3F51
:10368000510578F00C94B2190C94FD195F3FE4F3E6
:10369000983ED4F3869577956795B795F7959F5F94
:1036A000C9F7880F911D9695879597F90895E1E0E0
:1036B000660F771F881FBB1F621773078407BA073F
:1036C00020F0621B730B840BBA0BEE1F88F7E0959A
:1036D00008950E94E21988F09F5798F0B92F992712
:1036E000B751B0F0E1F0660F771F881F991F1AF0ED
:1036F000BA95C9F714C0B13091F00E94FC19B1E03D
:1037000008950C94FC19672F782F8827B85F39F03B
:10371000B93FCCF3869577956795B395D9F73EF485
:1037200090958095709561957F4F8F4F9F4F08952D
:103730000E94211908F48FEF08950E942119880B27
:10374000990B08950F931F93CF93DF9382309105C8
:1037500010F482E090E0E0915104F091520420E0F6
:1037600030E0A0E0B0E0309719F140815181028152
:10377000138148175907C8F08417950769F4109703
:1037800031F012960C93129713961C9327C0009356
:1037900051041093520422C02115310519F042172B
:1037A000530718F49A01BD01EF01DF01F801DBCFE7
:1037B00021153105F9F0281B390B2430310580F42F
:1037C0008A819B816115710521F0FB0193838283BE
:1037D00004C09093520480935104FE01329644C079
:1037E000FE01E20FF31F8193919322503109398337
:1037F00028833AC020914F0430915004232B41F488
:1038000020912701309128013093500420934F04D8
:1038100020912501309126012115310541F42DB764
:103820003EB74091290150912A01241B350BE091AC
:103830004F04F0915004E217F307A0F42E1B3F0B46
:103840002817390778F0AC014E5F5F4F2417350712
:1038500048F04E0F5F1F5093500440934F048193E4
:10386000919302C0E0E0F0E0CF01DF91CF911F9192
:103870000F910895CF93DF93009709F481C0FC0165
:10388000329713821282A0915104B0915204109782
:1038900081F420813181820F931F20914F04309158
:1038A00050042817390751F5F0935004E0934F0462
:1038B00067C0ED0120E030E0CE17DF0740F44A8119
:1038C0005B819E0141155105F1F0EA01F5CFD383EB
:1038D000C28340815181840F951FC817D90759F4BD
:1038E00088819981840F951F0296918380838A81B4
:1038F0009B81938382832115310529F4F09352042F
:10390000E09351043DC0E901FB83EA834991599159
:10391000C40FD51FEC17FD0761F480819181840FDE
:10392000951F0296E90199838883828193819B8305
:103930008A83E0E0F0E012968D919C9113970097B6
:1039400019F0FD01DC01F7CF8D919C9111979D013C
:103950002E5F3F4F820F931F20914F0430915004F0
:103960002817390769F4309729F4109252041092FD
:10397000510402C013821282B0935004A0934F04EA
:10398000DF91CF910895A0E0B0E0E9ECFCE10C9468
:10399000071AEC01009721F4CB010E94A21BB4C0CE
:1039A000FC01E60FF71F9C0122503109E217F307D3
:1039B00008F4A8C0D9010D911C911197061717079B
:1039C000B0F00530110508F49BC0C80104978617B4
:1039D000970708F495C002501109061B170B0193B5
:1039E00011936D937C93CF010E943A1C89C05B01B7
:1039F000A01AB10A4C01800E911EA0915104B09101
:103A00005204612C712CE12CF12C109709F446C062
:103A10008D919C911197A815B905B1F56C0142E003
:103A2000C40ED11CCA14DB0478F14C018A189B081F
:103A3000640142E0C40ED11C1296BC9012971396FA
:103A4000AC91B5E0CB16D10440F0B282A383918251
:103A50008082D9016D937C9309C00E5F1F4F800F48
:103A6000911FF90191838083EB2DFA2FE114F1046A
:103A700031F0D7011396FC93EE93129741C0F09367
:103A80005204E09351043CC06816790608F43C01E6
:103A90007D0112960D90BC91A02DB7CF80914F045F
:103AA0009091500488169906E1F466167706C8F4DA
:103AB0008091250190912601009741F48DB79EB722
:103AC0004091290150912A01841B950BE817F907B1
:103AD000C8F4F0935004E0934F04F90171836083BC
:103AE0000FC0CB010E94A21B7C01009759F0A801D6
:103AF000BE010E948E1DCE010E943A1CC70104C067
:103B0000CE0102C080E090E0CDB7DEB7EEE00C94CD
:103B1000231A81E090E0F8940C949E1DFB01DC01D7
:103B200002C001900D9241505040D8F70895FB011A
:103B3000DC0101900D920020E1F7089510E0CDEC3A
:103B4000D0E004C0FE010E94841A2196CE3CD10729
:063B5000C9F7F894FFCF55
:103B56000104000100000C420000A04100002041C9
:103B66000000B041CDCCCC3E000034420074B70119
:103B760004F50100000000530480005E00BC0077DD
:103B860001000034420000804000000C420000208A
:103B96004100007042000000400000344200002056
:103BA6004100008242000000400000484200002020
:103BB6004100008C420000404100004842000020C5
:103BC60041000082420000404000004842000020C0
:103BD60041000034420000804000000C42000020FA
:103BE6004100004842000040400000204200002002
:103BF6004100007042000080400000344200002076
:103C06004100005C420000C0400000344200002039
:103C1600410000A042000040400000344200002065
:103C2600410040145400401050000000007D0B502D
:103C36000B4401240B480B340B250B000000003607
:103C460001F800440143016802220168014901208C
:103C56002020202020504C41202020202020200001
:103C660020202020202041425320202020202020D8
:103C760000202020202020504554472020202020AE
:103C8600200020202020204E594C4F4E202020205E
:103C9600202000202020446573736963616E7420C0
:103CA60020202000202020202020505641202020A7
:103CB6002020202000202020205450552F545045ED
:103CC6002020202020002020202020204153412099
:103CD600202020202020002020202020202050509E
:103CE60020202020202020002020205355504552FF
:103CF60020484F5421202020006E616E00696E66B8
:063D0600006F766600006C
:00000001FF
